{
  "contractName": "ChainList",
  "abi": [
    {
      "constant": false,
      "inputs": [],
      "name": "renounceOwnership",
      "outputs": [],
      "payable": false,
      "stateMutability": "nonpayable",
      "type": "function"
    },
    {
      "constant": true,
      "inputs": [],
      "name": "owner",
      "outputs": [
        {
          "name": "",
          "type": "address"
        }
      ],
      "payable": false,
      "stateMutability": "view",
      "type": "function"
    },
    {
      "constant": true,
      "inputs": [],
      "name": "isOwner",
      "outputs": [
        {
          "name": "",
          "type": "bool"
        }
      ],
      "payable": false,
      "stateMutability": "view",
      "type": "function"
    },
    {
      "constant": true,
      "inputs": [
        {
          "name": "",
          "type": "uint256"
        }
      ],
      "name": "articles",
      "outputs": [
        {
          "name": "id",
          "type": "uint256"
        },
        {
          "name": "seller",
          "type": "address"
        },
        {
          "name": "buyer",
          "type": "address"
        },
        {
          "name": "name",
          "type": "string"
        },
        {
          "name": "description",
          "type": "string"
        },
        {
          "name": "price",
          "type": "uint256"
        }
      ],
      "payable": false,
      "stateMutability": "view",
      "type": "function"
    },
    {
      "constant": false,
      "inputs": [
        {
          "name": "newOwner",
          "type": "address"
        }
      ],
      "name": "transferOwnership",
      "outputs": [],
      "payable": false,
      "stateMutability": "nonpayable",
      "type": "function"
    },
    {
      "anonymous": false,
      "inputs": [
        {
          "indexed": true,
          "name": "_id",
          "type": "uint256"
        },
        {
          "indexed": true,
          "name": "_seller",
          "type": "address"
        },
        {
          "indexed": false,
          "name": "_name",
          "type": "string"
        },
        {
          "indexed": false,
          "name": "_price",
          "type": "uint256"
        }
      ],
      "name": "LogSellArticle",
      "type": "event"
    },
    {
      "anonymous": false,
      "inputs": [
        {
          "indexed": true,
          "name": "_id",
          "type": "uint256"
        },
        {
          "indexed": true,
          "name": "_seller",
          "type": "address"
        },
        {
          "indexed": true,
          "name": "_buyer",
          "type": "address"
        },
        {
          "indexed": false,
          "name": "_name",
          "type": "string"
        },
        {
          "indexed": false,
          "name": "_price",
          "type": "uint256"
        }
      ],
      "name": "LogBuyArticle",
      "type": "event"
    },
    {
      "anonymous": false,
      "inputs": [
        {
          "indexed": true,
          "name": "previousOwner",
          "type": "address"
        },
        {
          "indexed": true,
          "name": "newOwner",
          "type": "address"
        }
      ],
      "name": "OwnershipTransferred",
      "type": "event"
    },
    {
      "constant": false,
      "inputs": [],
      "name": "kill",
      "outputs": [],
      "payable": false,
      "stateMutability": "nonpayable",
      "type": "function"
    },
    {
      "constant": false,
      "inputs": [
        {
          "name": "_name",
          "type": "string"
        },
        {
          "name": "_description",
          "type": "string"
        },
        {
          "name": "_price",
          "type": "uint256"
        }
      ],
      "name": "sellArticle",
      "outputs": [],
      "payable": false,
      "stateMutability": "nonpayable",
      "type": "function"
    },
    {
      "constant": true,
      "inputs": [],
      "name": "getNumberOfArticles",
      "outputs": [
        {
          "name": "",
          "type": "uint256"
        }
      ],
      "payable": false,
      "stateMutability": "view",
      "type": "function"
    },
    {
      "constant": true,
      "inputs": [],
      "name": "getArticlesForSale",
      "outputs": [
        {
          "name": "",
          "type": "uint256[]"
        }
      ],
      "payable": false,
      "stateMutability": "view",
      "type": "function"
    },
    {
      "constant": false,
      "inputs": [
        {
          "name": "_id",
          "type": "uint256"
        }
      ],
      "name": "buyArticle",
      "outputs": [],
      "payable": true,
      "stateMutability": "payable",
      "type": "function"
    }
  ],
  "bytecode": "0x6080604081905260008054600160a060020a0319163317808255600160a060020a0316917f8be0079c531659141344cd1fd0a4f28419497f9722a3daafe3b4186f6b6457e0908290a3610e77806100576000396000f3fe6080604052600436106100ae576000357c0100000000000000000000000000000000000000000000000000000000900480638da5cb5b116100765780638da5cb5b146101885780638f32d59b146101b9578063d2609515146101e2578063edcfafe61461031e578063f2fde38b14610466576100ae565b80631cc4baa8146100b357806341c0e1b5146100d2578063715018a6146100e75780637f6be3da146100fc57806389da85d314610161575b600080fd5b6100d0600480360360208110156100c957600080fd5b5035610499565b005b3480156100de57600080fd5b506100d06107cc565b3480156100f357600080fd5b506100d06107e2565b34801561010857600080fd5b5061011161084c565b60408051602080825283518183015283519192839290830191858101910280838360005b8381101561014d578181015183820152602001610135565b505050509050019250505060405180910390f35b34801561016d57600080fd5b5061017661095f565b60408051918252519081900360200190f35b34801561019457600080fd5b5061019d610965565b60408051600160a060020a039092168252519081900360200190f35b3480156101c557600080fd5b506101ce610974565b604080519115158252519081900360200190f35b3480156101ee57600080fd5b506100d06004803603606081101561020557600080fd5b81019060208101813564010000000081111561022057600080fd5b82018360208201111561023257600080fd5b8035906020019184600183028401116401000000008311171561025457600080fd5b91908080601f01602080910402602001604051908101604052809392919081815260200183838082843760009201919091525092959493602081019350359150506401000000008111156102a757600080fd5b8201836020820111156102b957600080fd5b803590602001918460018302840111640100000000831117156102db57600080fd5b91908080601f0160208091040260200160405190810160405280939291908181526020018383808284376000920191909152509295505091359250610985915050565b34801561032a57600080fd5b506103486004803603602081101561034157600080fd5b5035610bc2565b6040518087815260200186600160a060020a0316600160a060020a0316815260200185600160a060020a0316600160a060020a031681526020018060200180602001848152602001838103835286818151815260200191508051906020019080838360005b838110156103c55781810151838201526020016103ad565b50505050905090810190601f1680156103f25780820380516001836020036101000a031916815260200191505b50838103825285518152855160209182019187019080838360005b8381101561042557818101518382015260200161040d565b50505050905090810190601f1680156104525780820380516001836020036101000a031916815260200191505b509850505050505050505060405180910390f35b34801561047257600080fd5b506100d06004803603602081101561048957600080fd5b5035600160a060020a0316610d17565b6002546000106104f3576040805160e560020a62461bcd02815260206004820152601160248201527f4e6f2061727469636c6520746f20627579000000000000000000000000000000604482015290519081900360640190fd5b60008111801561050557506002548111155b151561055b576040805160e560020a62461bcd02815260206004820152601560248201527f41727469636c6520646f65736e27742065786973740000000000000000000000604482015290519081900360640190fd5b60008181526001602052604090206002810154600160a060020a0316156105cc576040805160e560020a62461bcd02815260206004820152601460248201527f41727469636c6520616c726561647920736f6c64000000000000000000000000604482015290519081900360640190fd5b6001810154600160a060020a0316331415610631576040805160e560020a62461bcd02815260206004820152601a60248201527f42757965722063616e6e6f74206265207468652073656c6c6572000000000000604482015290519081900360640190fd5b6005810154341461068c576040805160e560020a62461bcd02815260206004820152601360248201527f507269636520646f65736e2774206d6174636800000000000000000000000000604482015290519081900360640190fd5b60028101805473ffffffffffffffffffffffffffffffffffffffff1916331790556001810154604051600160a060020a0391909116903480156108fc02916000818181858888f193505050501580156106e9573d6000803e3d6000fd5b506002808201546001808401546005850154604080516020810183905281815260038801805460001996811615610100029690960190951696909604908601819052600160a060020a0394851695929094169387937f5d28bc06e6f0c45405abfe77bd77236c767f9bd9d044ae2d954a415a2b4823e09390929181906060820190859080156107b95780601f1061078e576101008083540402835291602001916107b9565b820191906000526020600020905b81548152906001019060200180831161079c57829003601f168201915b5050935050505060405180910390a45050565b6107d4610974565b15156107df57600080fd5b33ff5b6107ea610974565b15156107f557600080fd5b60008054604051600160a060020a03909116907f8be0079c531659141344cd1fd0a4f28419497f9722a3daafe3b4186f6b6457e0908390a36000805473ffffffffffffffffffffffffffffffffffffffff19169055565b60608060025460405190808252806020026020018201604052801561087b578160200160208202803883390190505b509050600060015b60025481116108e357600081815260016020526040902060020154600160a060020a031615156108db5760008181526001602052604090205483518490849081106108ca57fe5b602090810290910101526001909101905b600101610883565b50606081604051908082528060200260200182016040528015610910578160200160208202803883390190505b50905060005b8281101561095657838181518110151561092c57fe5b90602001906020020151828281518110151561094457fe5b60209081029091010152600101610916565b50925050505b90565b60025490565b600054600160a060020a031690565b600054600160a060020a0316331490565b825183906000106109e0576040805160e560020a62461bcd02815260206004820152601060248201527f6e616d6520697320726571756972656400000000000000000000000000000000604482015290519081900360640190fd5b82518390600010610a3b576040805160e560020a62461bcd02815260206004820152601760248201527f6465736372697074696f6e206973207265717569726564000000000000000000604482015290519081900360640190fd5b6002805460019081018083556040805160c0810182528281523360208083019182526000838501818152606085018e8152608086018e905260a086018d90529682528783529490208351815591519582018054600160a060020a0397881673ffffffffffffffffffffffffffffffffffffffff19918216179091559351968201805497909616969093169590951790935590518051929392610ae39260038501920190610db3565b5060808201518051610aff916004840191602090910190610db3565b5060a0820151816005015590505033600160a060020a03166002547fe2ebb0c522a8b90a93f45a5dfd3c0e0516b81519fdf199efe51c474642fe8cec87866040518080602001838152602001828103825284818151815260200191508051906020019080838360005b83811015610b80578181015183820152602001610b68565b50505050905090810190601f168015610bad5780820380516001836020036101000a031916815260200191505b50935050505060405180910390a35050505050565b60016020818152600092835260409283902080548184015460028084015460038501805489516101009982161599909902600019011692909204601f81018790048702880187019098528787529296600160a060020a0392831696929093169491929091830182828015610c775780601f10610c4c57610100808354040283529160200191610c77565b820191906000526020600020905b815481529060010190602001808311610c5a57829003601f168201915b5050505060048301805460408051602060026001851615610100026000190190941693909304601f8101849004840282018401909252818152949594935090830182828015610d075780601f10610cdc57610100808354040283529160200191610d07565b820191906000526020600020905b815481529060010190602001808311610cea57829003601f168201915b5050505050908060050154905086565b610d1f610974565b1515610d2a57600080fd5b610d3381610d36565b50565b600160a060020a0381161515610d4b57600080fd5b60008054604051600160a060020a03808516939216917f8be0079c531659141344cd1fd0a4f28419497f9722a3daafe3b4186f6b6457e091a36000805473ffffffffffffffffffffffffffffffffffffffff1916600160a060020a0392909216919091179055565b828054600181600116156101000203166002900490600052602060002090601f016020900481019282601f10610df457805160ff1916838001178555610e21565b82800160010185558215610e21579182015b82811115610e21578251825591602001919060010190610e06565b50610e2d929150610e31565b5090565b61095c91905b80821115610e2d5760008155600101610e3756fea165627a7a72305820bf182f35b31bb6009cec1a5ecb477a8b09330f5ea521112c79fdba674177abfb0029",
  "source": "pragma solidity >0.4.99 <0.6.0;\nimport 'openzeppelin-solidity/contracts/ownership/Ownable.sol';\n\ncontract ChainList is Ownable {\n  \n  // Custom types\n  struct Article {\n    uint id;\n    address payable seller;\n    address buyer;\n    string name;\n    string description;\n    uint256 price;\n  }\n\n  // State variables\n  mapping (uint => Article) public articles;\n  uint articleCounter;\n\n  // Events\n  event LogSellArticle (\n    uint indexed _id,\n    address indexed _seller,\n    string _name,\n    uint256 _price\n  );\n  event LogBuyArticle (\n    uint indexed _id,\n    address indexed _seller,\n    address indexed _buyer,\n    string _name,\n    uint256 _price\n  );\n\n  // kill the smart contract\n  function kill() public onlyOwner {    \n    selfdestruct(msg.sender);\n  }\n\n  // sell an article\n  function sellArticle(string memory _name, string memory _description, uint256 _price) public {\n    // a name is required\n    bytes memory name = bytes(_name);\n    require(name.length > 0, \"name is required\");\n\n    // a description is required\n    bytes memory description = bytes(_description);\n    require(description.length > 0, \"description is required\");\n\n    // the price can be 0 if seller decides to give the article for free\n\n    // a new article\n    articleCounter++;\n\n    // store this article\n    articles[articleCounter] = Article(\n      articleCounter,\n      msg.sender,\n      address(0),\n      _name,\n      _description,\n      _price);\n\n    emit LogSellArticle(articleCounter, msg.sender, _name, _price);\n  }\n\n  // fetch the number of articles in the contract\n  function getNumberOfArticles() public view returns (uint) {\n    return articleCounter;\n  }\n\n  // fetch and return all article IDs for articles still for sale\n  function getArticlesForSale() public view returns (uint[] memory) {\n    // prepare output array\n    uint[] memory articleIds = new uint[](articleCounter);\n\n    uint numberOfArticlesForSale = 0;\n    // iterate over articles\n    for (uint i = 1; i <= articleCounter; i++) {\n      // keep the ID if the article is still for sale\n      if (articles[i].buyer == address(0)) {\n        articleIds[numberOfArticlesForSale] = articles[i].id;\n        numberOfArticlesForSale++;\n      }\n    }\n\n    // copy the articleIds array into a smaller forSale array\n    uint[] memory forSale = new uint[](numberOfArticlesForSale);\n    for (uint i = 0; i < numberOfArticlesForSale; i++) {\n      forSale[i] = articleIds[i];\n    }\n    return forSale;\n  }\n\n  // buy an article\n  function buyArticle(uint _id) payable public {\n    // we check whether there is an article for sale\n    require(articleCounter > 0, \"No article to buy\");\n\n    // we check that the article exists\n    require(_id > 0 && _id <= articleCounter, \"Article doesn't exist\");\n\n    // we retrieve the article\n    Article storage article = articles[_id];\n\n    // we check that the article has not been sold yet\n    require(article.buyer == address(0), \"Article already sold\");\n\n    // we don't allow the seller to buy his own article\n    require(msg.sender != article.seller, \"Buyer cannot be the seller\");\n\n    // we check that the value sent corresponds to the price of the article\n    require(msg.value == article.price, \"Price doesn't match\");\n\n    // keep buyer's information\n    article.buyer = msg.sender;\n\n    // the buyer can pay the seller\n    article.seller.transfer(msg.value);\n\n    // trigger the event\n    emit LogBuyArticle(_id, article.seller, article.buyer, article.name, article.price);\n  }\n}",
  "sourcePath": "/Users/sarbogast/ChainSkills/Training/chainlist/contracts/ChainList.sol",
  "compiler": {
    "name": "solc",
    "version": "0.5.2+commit.1df8f40c.Emscripten.clang"
  },
  "schemaVersion": "3.2.3",
  "updatedAt": "2020-08-12T02:26:12.664Z",
  "networkType": "ethereum",
  "devdoc": {
    "methods": {
      "isOwner()": {
        "return": "true if `msg.sender` is the owner of the contract."
      },
      "owner()": {
        "return": "the address of the owner."
      },
      "renounceOwnership()": {
        "details": "Allows the current owner to relinquish control of the contract. It will not be possible to call the functions with the `onlyOwner` modifier anymore."
      },
      "transferOwnership(address)": {
        "details": "Allows the current owner to transfer control of the contract to a newOwner.",
        "params": {
          "newOwner": "The address to transfer ownership to."
        }
      }
    }
  },
  "userdoc": {
    "methods": {
      "renounceOwnership()": {
        "notice": "Renouncing ownership will leave the contract without an owner, thereby removing any functionality that is only available to the owner."
      }
    }
  }
}